:020000040000FA
:0400000006EF00F017
:0800080018EF00F04DEC00F0D0
:100010006EEC00F052EC00F05EEC00F064EC00F0EE
:1000200076EC00F0D08EF28EA182A192A092FFD742
:10003000A1A215D0CD9059EC00F0A192B180CECF05
:1000400001F071EC00F0C4CF00F085EC00F003C0CB
:10005000BBFF02C08CFFC282A5EC00F010009EAA7C
:1000600011D0530EAE6204D059EC00F0A082100003
:10007000520EAE6207D0A192A092000EBB6E8C6EA3
:10008000036E10009EA81000E92AEFCFADFF2A0EE4
:10009000EF6210009D981000100092807E80956A9B
:1000A000836A1200900EB16E59EC00F0A192B180FB
:1000B00012000B0EB36EDC0EB26E1200010EC26E99
:1000C0002F0EC06EC16A12009492BA6ABA86BA84C0
:1000D000CA80CA92FF0ECB6ECA8412009480020EB0
:1000E000CD6E000ECF6ECE6ECD801200190EAF6EAB
:1000F000B886AC84948C948EAC989F8AAB8E9D8A83
:10010000AC8AAB88AB9CB8981200000E00641AD081
:10011000015000640ED00150005C026E031C046E9E
:100120000250046403D0025003261200FF0E036E37
:1001300012000050015C026E0250036403D00250B2
:10014000035E1200000E036E120001C023F0C7EC24
:1001500000F02A0E306E470E316E20C032F021C002
:1001600033F022C034F02C0E356E00C023F0C7EC03
:1001700000F020C036F021C037F022C038F02A0E3F
:10018000396E300EE96EEFCFADFF9D881200000E84
:10019000206E000E216E000E226E23C024F024C0BB
:1001A00025F0640E245E2550246003D0010E202625
:1001B000F6D724C025F0640E24260A0E245E2550AE
:1001C000246003D0010E2126F8D70A0E242624C06D
:1001D00022F0300E2226300E2126300E202612006C
:020000040030CA
:0100010008F6
:010002001FDE
:010003001FDD
:010005008B6F
:010006008574
:010008000FE8
:01000900C036
:01000A000FE6
:01000B00E014
:01000C000FE4
:01000D0040B2
:00000001FF
